{
  "contractName": "Tumbler",
  "abi": [
    {
      "inputs": [
        {
          "internalType": "uint256",
          "name": "_feePercentage",
          "type": "uint256"
        }
      ],
      "stateMutability": "nonpayable",
      "type": "constructor"
    },
    {
      "anonymous": false,
      "inputs": [
        {
          "indexed": true,
          "internalType": "address",
          "name": "from",
          "type": "address"
        },
        {
          "indexed": false,
          "internalType": "uint256",
          "name": "amount",
          "type": "uint256"
        }
      ],
      "name": "Deposit",
      "type": "event"
    },
    {
      "anonymous": false,
      "inputs": [
        {
          "indexed": true,
          "internalType": "address",
          "name": "to",
          "type": "address"
        },
        {
          "indexed": false,
          "internalType": "uint256",
          "name": "amount",
          "type": "uint256"
        }
      ],
      "name": "OwnerWithdraw",
      "type": "event"
    },
    {
      "anonymous": false,
      "inputs": [
        {
          "indexed": true,
          "internalType": "address",
          "name": "to",
          "type": "address"
        },
        {
          "indexed": false,
          "internalType": "uint256",
          "name": "amount",
          "type": "uint256"
        }
      ],
      "name": "Withdraw",
      "type": "event"
    },
    {
      "stateMutability": "payable",
      "type": "fallback",
      "payable": true
    },
    {
      "inputs": [],
      "name": "BASIS_POINTS",
      "outputs": [
        {
          "internalType": "uint256",
          "name": "",
          "type": "uint256"
        }
      ],
      "stateMutability": "view",
      "type": "function",
      "constant": true
    },
    {
      "inputs": [
        {
          "internalType": "uint256",
          "name": "",
          "type": "uint256"
        }
      ],
      "name": "depositors",
      "outputs": [
        {
          "internalType": "address",
          "name": "",
          "type": "address"
        }
      ],
      "stateMutability": "view",
      "type": "function",
      "constant": true
    },
    {
      "inputs": [
        {
          "internalType": "address",
          "name": "",
          "type": "address"
        }
      ],
      "name": "deposits",
      "outputs": [
        {
          "internalType": "uint256",
          "name": "",
          "type": "uint256"
        }
      ],
      "stateMutability": "view",
      "type": "function",
      "constant": true
    },
    {
      "inputs": [],
      "name": "feePercentage",
      "outputs": [
        {
          "internalType": "uint256",
          "name": "",
          "type": "uint256"
        }
      ],
      "stateMutability": "view",
      "type": "function",
      "constant": true
    },
    {
      "inputs": [],
      "name": "owner",
      "outputs": [
        {
          "internalType": "address",
          "name": "",
          "type": "address"
        }
      ],
      "stateMutability": "view",
      "type": "function",
      "constant": true
    },
    {
      "stateMutability": "payable",
      "type": "receive",
      "payable": true
    },
    {
      "inputs": [],
      "name": "deposit",
      "outputs": [],
      "stateMutability": "payable",
      "type": "function",
      "payable": true
    },
    {
      "inputs": [
        {
          "internalType": "uint256",
          "name": "amount",
          "type": "uint256"
        }
      ],
      "name": "withdraw",
      "outputs": [],
      "stateMutability": "nonpayable",
      "type": "function"
    },
    {
      "inputs": [],
      "name": "withdrawFees",
      "outputs": [],
      "stateMutability": "nonpayable",
      "type": "function"
    },
    {
      "inputs": [
        {
          "internalType": "uint256",
          "name": "newFeePercentage",
          "type": "uint256"
        }
      ],
      "name": "setFeePercentage",
      "outputs": [],
      "stateMutability": "nonpayable",
      "type": "function"
    }
  ],
  "bytecode": "0x60806040523480156200001157600080fd5b5060405162001062380380620010628339818101604052810190620000379190620000e4565b6103e88111156200007f576040517f08c379a0000000000000000000000000000000000000000000000000000000008152600401620000769062000178565b60405180910390fd5b336000806101000a81548173ffffffffffffffffffffffffffffffffffffffff021916908373ffffffffffffffffffffffffffffffffffffffff1602179055508060018190555050620001cf565b600081519050620000de81620001b5565b92915050565b600060208284031215620000f757600080fd5b60006200010784828501620000cd565b91505092915050565b60006200011f6025836200019a565b91507f466565206d757374206265206c657373207468616e206f7220657175616c207460008301527f6f203130250000000000000000000000000000000000000000000000000000006020830152604082019050919050565b60006020820190508181036000830152620001938162000110565b9050919050565b600082825260208201905092915050565b6000819050919050565b620001c081620001ab565b8114620001cc57600080fd5b50565b610e8380620001df6000396000f3fe60806040526004361061008a5760003560e01c8063ae06c1b711610059578063ae06c1b714610139578063d0e30db014610162578063e1f1c4a71461016c578063e4b2fb7914610197578063fc7e286d146101d457610099565b80632e1a7d4d146100a3578063476343ee146100cc5780638da5cb5b146100e3578063a001ecdd1461010e57610099565b3661009957610097610211565b005b6100a1610211565b005b3480156100af57600080fd5b506100ca60048036038101906100c59190610993565b6103d6565b005b3480156100d857600080fd5b506100e1610546565b005b3480156100ef57600080fd5b506100f86107dc565b6040516101059190610b40565b60405180910390f35b34801561011a57600080fd5b50610123610800565b6040516101309190610bfb565b60405180910390f35b34801561014557600080fd5b50610160600480360381019061015b9190610993565b610806565b005b61016a610211565b005b34801561017857600080fd5b506101816108e3565b60405161018e9190610bfb565b60405180910390f35b3480156101a357600080fd5b506101be60048036038101906101b99190610993565b6108e9565b6040516101cb9190610b40565b60405180910390f35b3480156101e057600080fd5b506101fb60048036038101906101f6919061096a565b610928565b6040516102089190610bfb565b60405180910390f35b60003411610254576040517f08c379a000000000000000000000000000000000000000000000000000000000815260040161024b90610bbb565b60405180910390fd5b6000612710600154346102679190610cae565b6102719190610c7d565b9050600081346102819190610d08565b905080600260003373ffffffffffffffffffffffffffffffffffffffff1673ffffffffffffffffffffffffffffffffffffffff16815260200190815260200160002060008282546102d29190610c27565b9250508190555080600260003373ffffffffffffffffffffffffffffffffffffffff1673ffffffffffffffffffffffffffffffffffffffff168152602001908152602001600020541415610384576003339080600181540180825580915050600190039060005260206000200160009091909190916101000a81548173ffffffffffffffffffffffffffffffffffffffff021916908373ffffffffffffffffffffffffffffffffffffffff1602179055505b3373ffffffffffffffffffffffffffffffffffffffff167fe1fffcc4923d04b559f4d29a8bfc6cda04eb5b0d3c460751c2402c5c5cc9109c826040516103ca9190610bfb565b60405180910390a25050565b80600260003373ffffffffffffffffffffffffffffffffffffffff1673ffffffffffffffffffffffffffffffffffffffff168152602001908152602001600020541015610458576040517f08c379a000000000000000000000000000000000000000000000000000000000815260040161044f90610b9b565b60405180910390fd5b80600260003373ffffffffffffffffffffffffffffffffffffffff1673ffffffffffffffffffffffffffffffffffffffff16815260200190815260200160002060008282546104a79190610d08565b925050819055503373ffffffffffffffffffffffffffffffffffffffff166108fc829081150290604051600060405180830381858888f193505050501580156104f4573d6000803e3d6000fd5b503373ffffffffffffffffffffffffffffffffffffffff167f884edad9ce6fa2440d8a54cc123490eb96d2768479d49ff9c7366125a94243648260405161053b9190610bfb565b60405180910390a250565b60008054906101000a900473ffffffffffffffffffffffffffffffffffffffff1673ffffffffffffffffffffffffffffffffffffffff163373ffffffffffffffffffffffffffffffffffffffff16146105d4576040517f08c379a00000000000000000000000000000000000000000000000000000000081526004016105cb90610bdb565b60405180910390fd5b60004790506000805b6003805490508110156106ae576002600060038381548110610628577f4e487b7100000000000000000000000000000000000000000000000000000000600052603260045260246000fd5b9060005260206000200160009054906101000a900473ffffffffffffffffffffffffffffffffffffffff1673ffffffffffffffffffffffffffffffffffffffff1673ffffffffffffffffffffffffffffffffffffffff16815260200190815260200160002054826106999190610c27565b915080806106a690610d78565b9150506105dd565b50600081836106bd9190610d08565b905060008111610702576040517f08c379a00000000000000000000000000000000000000000000000000000000081526004016106f990610b7b565b60405180910390fd5b60008054906101000a900473ffffffffffffffffffffffffffffffffffffffff1673ffffffffffffffffffffffffffffffffffffffff166108fc829081150290604051600060405180830381858888f19350505050158015610768573d6000803e3d6000fd5b5060008054906101000a900473ffffffffffffffffffffffffffffffffffffffff1673ffffffffffffffffffffffffffffffffffffffff167f13c461eb29f5d65800bbef5a5b05a06ea13b8b2ef4b889ee170f149bc1c8f8bd826040516107cf9190610bfb565b60405180910390a2505050565b60008054906101000a900473ffffffffffffffffffffffffffffffffffffffff1681565b60015481565b60008054906101000a900473ffffffffffffffffffffffffffffffffffffffff1673ffffffffffffffffffffffffffffffffffffffff163373ffffffffffffffffffffffffffffffffffffffff1614610894576040517f08c379a000000000000000000000000000000000000000000000000000000000815260040161088b90610bdb565b60405180910390fd5b6103e88111156108d9576040517f08c379a00000000000000000000000000000000000000000000000000000000081526004016108d090610b5b565b60405180910390fd5b8060018190555050565b61271081565b600381815481106108f957600080fd5b906000526020600020016000915054906101000a900473ffffffffffffffffffffffffffffffffffffffff1681565b60026020528060005260406000206000915090505481565b60008135905061094f81610e1f565b92915050565b60008135905061096481610e36565b92915050565b60006020828403121561097c57600080fd5b600061098a84828501610940565b91505092915050565b6000602082840312156109a557600080fd5b60006109b384828501610955565b91505092915050565b6109c581610d3c565b82525050565b60006109d8602583610c16565b91507f466565206d757374206265206c657373207468616e206f7220657175616c207460008301527f6f203130250000000000000000000000000000000000000000000000000000006020830152604082019050919050565b6000610a3e602083610c16565b91507f4e6f206665657320617661696c61626c6520666f72207769746864726177616c6000830152602082019050919050565b6000610a7e602083610c16565b91507f496e73756666696369656e742062616c616e636520746f2077697468647261776000830152602082019050919050565b6000610abe601f83610c16565b91507f4d7573742073656e6420736f6d6520657468657220746f206465706f736974006000830152602082019050919050565b6000610afe600e83610c16565b91507f4e6f7420617574686f72697a65640000000000000000000000000000000000006000830152602082019050919050565b610b3a81610d6e565b82525050565b6000602082019050610b5560008301846109bc565b92915050565b60006020820190508181036000830152610b74816109cb565b9050919050565b60006020820190508181036000830152610b9481610a31565b9050919050565b60006020820190508181036000830152610bb481610a71565b9050919050565b60006020820190508181036000830152610bd481610ab1565b9050919050565b60006020820190508181036000830152610bf481610af1565b9050919050565b6000602082019050610c106000830184610b31565b92915050565b600082825260208201905092915050565b6000610c3282610d6e565b9150610c3d83610d6e565b9250827fffffffffffffffffffffffffffffffffffffffffffffffffffffffffffffffff03821115610c7257610c71610dc1565b5b828201905092915050565b6000610c8882610d6e565b9150610c9383610d6e565b925082610ca357610ca2610df0565b5b828204905092915050565b6000610cb982610d6e565b9150610cc483610d6e565b9250817fffffffffffffffffffffffffffffffffffffffffffffffffffffffffffffffff0483118215151615610cfd57610cfc610dc1565b5b828202905092915050565b6000610d1382610d6e565b9150610d1e83610d6e565b925082821015610d3157610d30610dc1565b5b828203905092915050565b6000610d4782610d4e565b9050919050565b600073ffffffffffffffffffffffffffffffffffffffff82169050919050565b6000819050919050565b6000610d8382610d6e565b91507fffffffffffffffffffffffffffffffffffffffffffffffffffffffffffffffff821415610db657610db5610dc1565b5b600182019050919050565b7f4e487b7100000000000000000000000000000000000000000000000000000000600052601160045260246000fd5b7f4e487b7100000000000000000000000000000000000000000000000000000000600052601260045260246000fd5b610e2881610d3c565b8114610e3357600080fd5b50565b610e3f81610d6e565b8114610e4a57600080fd5b5056fea26469706673582212207afe00d6ef8f3fcbf6b0fb35dca1a1cb922bedfbf1b17a0f1129320d2718bb0164736f6c63430008000033",
  "immutableReferences": {},
  "source": "// SPDX-License-Identifier: MIT\r\npragma solidity ^0.8.0;\r\n\r\ncontract Tumbler {\r\n    address public owner;\r\n    uint256 public feePercentage; // Fee percentage (1% = 100 basis points)\r\n    uint256 public constant BASIS_POINTS = 10000;\r\n    mapping(address => uint256) public deposits;\r\n    address[] public depositors; // Array to store the addresses of depositors\r\n\r\n    event Deposit(address indexed from, uint256 amount);\r\n    event Withdraw(address indexed to, uint256 amount);\r\n    event OwnerWithdraw(address indexed to, uint256 amount);\r\n    \r\n    modifier onlyOwner() {\r\n        require(msg.sender == owner, \"Not authorized\");\r\n        _;\r\n    }\r\n\r\n    constructor(uint256 _feePercentage) {\r\n        require(_feePercentage <= 1000, \"Fee must be less than or equal to 10%\");\r\n        owner = msg.sender;\r\n        feePercentage = _feePercentage;\r\n    }\r\n\r\n    function deposit() public payable {\r\n        require(msg.value > 0, \"Must send some ether to deposit\");\r\n        \r\n        uint256 fee = (msg.value * feePercentage) / BASIS_POINTS;\r\n        uint256 depositAmount = msg.value - fee;\r\n        \r\n        deposits[msg.sender] += depositAmount;\r\n\r\n        // Check if the depositor is new and add them to the depositors array\r\n        if (deposits[msg.sender] == depositAmount) {\r\n            depositors.push(msg.sender);\r\n        }\r\n\r\n        emit Deposit(msg.sender, depositAmount);\r\n    }\r\n\r\n    function withdraw(uint256 amount) public {\r\n        require(deposits[msg.sender] >= amount, \"Insufficient balance to withdraw\");\r\n\r\n        deposits[msg.sender] -= amount;\r\n        payable(msg.sender).transfer(amount);\r\n\r\n        emit Withdraw(msg.sender, amount);\r\n    }\r\n\r\n    // Allows the owner to withdraw collected fees\r\n    function withdrawFees() public onlyOwner {\r\n        uint256 contractBalance = address(this).balance;\r\n        uint256 totalDeposits = 0;\r\n\r\n        // Calculate total deposits for all users\r\n        for (uint256 i = 0; i < depositors.length; i++) {\r\n            totalDeposits += deposits[depositors[i]];\r\n        }\r\n\r\n        uint256 feesCollected = contractBalance - totalDeposits;\r\n        require(feesCollected > 0, \"No fees available for withdrawal\");\r\n\r\n        payable(owner).transfer(feesCollected);\r\n        emit OwnerWithdraw(owner, feesCollected);\r\n    }\r\n\r\n    // Allow the owner to change the fee percentage\r\n    function setFeePercentage(uint256 newFeePercentage) public onlyOwner {\r\n        require(newFeePercentage <= 1000, \"Fee must be less than or equal to 10%\");\r\n        feePercentage = newFeePercentage;\r\n    }\r\n\r\n    // Fallback function to handle direct ETH transfers to the contract\r\n    receive() external payable {\r\n        deposit();\r\n    }\r\n\r\n    fallback() external payable {\r\n        deposit();\r\n    }\r\n}\r\n",
  "sourcePath": "C:\\Users\\bluco\\tortumbler\\contracts\\Tumbler.sol",
  "compiler": {
    "name": "solc",
    "version": "0.8.0+commit.c7dfd78e.Emscripten.clang"
  },
  "schemaVersion": "3.4.16",
  "updatedAt": "2024-10-19T18:46:47.677Z",
  "networkType": "ethereum",
  "devdoc": {
    "kind": "dev",
    "methods": {},
    "version": 1
  },
  "userdoc": {
    "kind": "user",
    "methods": {},
    "version": 1
  }
}